:020000040000FA
:0600000003EF17F01200EF
:020006001200E6
:0600080035EF06F01200C6
:02000E000200EE
:10001000A42E00000005000049000000A22E0000F0
:08002000F800000002000000DE
:080028000501416B426B640EFF
:1000300042AF02D0D89003D0415D000E42590BE28E
:10004000940E4125E96E000E4221EA6EEF6A412BC3
:10005000000E4223ECD7416B426B1DEC06F00C0EF8
:10006000E66EE66A7C0EE66E5BEC14F0E552E55255
:10007000E5529F8A0D0EE66E0C0EE66EAB0EE66E36
:100080005CEC15F0E552E552E552CB0EE66E40EC25
:1000900016F0E552E66A800EE66E80EC16F0E55248
:1000A000E552CF0ECB6E070ECA6E3E0EBE6E1C0E14
:1000B000BD6EBD5002E1000E01D0010EE8380F0BFD
:1000C000146EBE50040DF35014240501016F026B31
:1000D000010EE66EE5EC16F0E552400E146E2A0EA7
:1000E000156E166A14C0E6FF15C0E6FF16C0E6FFDF
:1000F0000FEC14F0E552E552E55229C52BF52AC55F
:100100002CF50501090E2B5F000E2C5B320EE66EFE
:10011000E66A3AEC05F0E552E5528050100B04E037
:100120000501280501E0C6D20501285101E1C2D22E
:10013000416B426B456B466B476B486B416B426B47
:100140000A0E42AF02D0D89003D0415D000E425952
:1001500025E20FEC06F041C5E9FF42C5EAFFD89061
:10016000E936EA36800EE926000EEA2204C5EEFFE3
:1001700005C5EDFF41C5E9FF42C5EAFFD890E93664
:10018000EA36800EE926000EEA22EE5005014527E8
:10019000EE504623412B000E4223D2D7416B426BD7
:1001A00045C508F046C509F09BEC0DF007C014F0FA
:1001B00008C015F009C016F00AC017F00C6A0D6AE5
:1001C000200E0E6E410E0F6E14C007F015C008F021
:1001D00016C009F017C00AF045EC0EF023EC0FF042
:1001E00008C047F509C048F547C518F048C519F0DB
:1001F000050E185E000E195A18C008F019C009F053
:100200009BEC0DF007C014F008C015F009C016F003
:100210000AC017F0330E0C6E0D6ED30E0E6E3F0E2D
:100220000F6E14C007F015C008F016C009F017C013
:100230000AF098EC0EF023EC0FF008C00AF509C0A4
:100240000BF50001FE0EF86FF96905010B3504E2AC
:100250000A51FF08000E0B551BE20AC514F0156A7F
:1002600014BE156814C0E6FF15C0E6FF3C0E166EFE
:100270002A0E176E186A16C0E6FF17C0E6FF18C0F0
:10028000E6FF0FEC14F0196E050EE15E19501AD05E
:100290000AC514F0156A14BE156814C0E6FF15C02F
:1002A000E6FF380E166E2A0E176E186A16C0E6FFA5
:1002B00017C0E6FF18C0E6FF0FEC14F0196E050E2C
:1002C000E15E19500AC508F00BC509F09BEC0DF072
:1002D00007C014F008C015F009C016F00AC017F0E6
:1002E00014C00CF015C00DF016C00EF017C00FF0C2
:1002F00014C507F015C508F016C509F017C50AF0B2
:10030000AEEC0DF007C020F508C021F509C022F5BC
:100310000AC023F529C508F02AC509F09BEC0DF0A9
:1003200007C01CF008C01DF009C01EF00AC01FF075
:100330001CC00CF01DC00DF01EC00EF01FC00FF051
:1003400020C507F021C508F022C509F023C50AF031
:1003500098EC0EF007C018F008C019F009C01AF0A8
:100360000AC01BF00C6A0D6A7A0E0E6E440E0F6EF8
:1003700018C007F019C008F01AC009F01BC00AF035
:1003800045EC0EF007C014F008C015F009C016F0D7
:100390000AC017F014C00CF015C00DF016C00EF016
:1003A00017C00FF010C507F011C508F012C509F00D
:1003B00013C50AF0AFEC0DF007C010F508C011F539
:1003C00009C012F50AC013F50CC50CF00DC50DF0EF
:1003D0000EC50EF00FC50FF020C507F021C508F0BF
:1003E00022C509F023C50AF0AEEC0DF007C018F0E5
:1003F00008C019F009C01AF00AC01BF029C508F09E
:100400002AC509F09BEC0DF007C01CF008C01DF0D8
:1004100009C01EF00AC01FF01CC00CF01DC00DF07A
:100420001EC00EF01FC00FF018C007F019C008F072
:100430001AC009F01BC00AF045EC0EF007C014F01A
:1004400008C015F009C016F00AC017F00C6A0D6A52
:100450007A0E0E6E440E0F6E14C007F015C008F031
:1004600016C009F017C00AF098EC0EF007C01CF592
:1004700008C01DF509C01EF50AC01FF520C50CF007
:1004800021C50DF022C50EF023C50FF02DC507F0D4
:100490002EC508F02FC509F030C50AF098EC0EF013
:1004A00007C018F008C019F009C01AF00AC01BF004
:1004B00010C50CF011C50DF012C50EF013C50FF0EC
:1004C00031C507F032C508F033C509F034C50AF06C
:1004D00098EC0EF007C01CF008C01DF009C01EF01B
:1004E0000AC01FF01CC00CF01DC00DF01EC00EF0A5
:1004F0001FC00FF018C007F019C008F01AC009F0AB
:100500001BC00AF0AFEC0DF007C014F008C015F0E6
:1005100009C016F00AC017F01CC50CF01DC50DF07F
:100520001EC50EF01FC50FF035C507F036C508F023
:1005300037C509F038C50AF098EC0EF007C020F076
:1005400008C021F009C022F00AC023F020C00CF03E
:1005500021C00DF022C00EF023C00FF014C007F030
:1005600015C008F016C009F017C00AF0AFEC0DF086
:1005700007C024F508C025F509C026F50AC027F5EF
:1005800020C50CF521C50DF522C50EF523C50FF5C7
:100590000C6A0D6AFA0E0E6E430E0F6E24C507F03C
:1005A00025C508F026C509F027C50AF052EC0FF062
:1005B000010A0BE1190EE66EE66A5CDAE552E552D5
:1005C000190E0501066F076B74D00C6A0D6AFA0EDE
:1005D0000E6EC30E0F6E24C507F025C508F026C5A4
:1005E00009F027C50AF05BEC0FF0010A0BE14B0E96
:1005F000E66EE66A3FDAE552E5524B0E0501066FFC
:10060000076B57D00501186B196B1A6B1B6B3D0EEE
:10061000146E0A0E156E570E166EBD0E176E24C59B
:100620000CF025C50DF026C50EF027C50FF014C03F
:1006300007F015C008F016C009F017C00AF098ECD2
:100640000EF007C018F508C019F509C01AF50AC060
:100650001BF50C6A0D6A480E0E6E420E0F6E18C521
:1006600007F019C508F01AC509F01BC50AF0AFEC70
:100670000DF007C018F508C019F509C01AF50AC031
:100680001BF518C507F019C508F01AC509F01BC5F8
:100690000AF023EC0FF008C006F509C007F506C5FF
:1006A000E6FF07C5E6FFE6D9E552E55205013D6BD9
:1006B0003E6B3AD51200D9CFE6FFE1CFD9FF020E4B
:1006C000E126FD0EDBCFDEFFDBCFDDFFD9CFE9FF7B
:1006D000DACFEAFFEE50ED100AE0010EE66EC5EC4F
:1006E00016F0E552DF06010E01E2DB06EFD7020E3F
:1006F000E15C02E2E16AE552E16EE552E7CFD9FF43
:10070000120029C52BF52AC52CF50501090E2B5F12
:10071000000E2C5B0001F869F969F4EC16F0010E8B
:10072000E66EE5EC16F0E5522BC5E6FF2CC5E6FFBC
:1007300029C5E6FF2AC5E6FF14C507F015C508F070
:1007400016C509F017C50AF023EC0FF008C014F025
:1007500009C015F014C0E6FF15C0E6FF290E166E9D
:100760002A0E176E186A16C0E6FF17C0E6FF18C0FB
:10077000E6FF0FEC14F0196E090EE15E1950400E01
:10078000E66EE5EC16F0E55235C507F036C508F023
:1007900037C509F038C50AF023EC0FF008C014F093
:1007A00009C015F014C0E6FF15C0E6FF31C507F01B
:1007B00032C508F033C509F034C50AF023EC0FF058
:1007C00008C016F009C017F016C0E6FF17C0E6FF14
:1007D0002DC507F02EC508F02FC509F030C50AF069
:1007E00023EC0FF008C018F009C019F018C0E6FF9C
:1007F00019C0E6FF1A0E1A6E2A0E1B6E1C6A1AC06A
:10080000E6FF1BC0E6FF1CC0E6FF0FEC14F01D6EF8
:10081000090EE15E1D501200D9CFE6FFE1CFD9FFEE
:10082000826A04C5E6FF05C5E6FF130E146E2A0EA4
:10083000156E166A14C0E6FF15C0E6FF16C0E6FF87
:100840000FEC14F0176E050EE15E17507C0ECB6EA8
:100850003E0EBE6E1C0EBD6EBD5002E1000E01D0FC
:10086000010EE8380F0B146EBE50040DF350142423
:100870000501016F026B400EE66EE5EC16F0E552E5
:1008800001C5E6FF02C5E6FF040E146E2A0E156EC2
:10089000166A14C0E6FF15C0E6FF16C0E6FF0FECAF
:1008A00014F0176E050EE15E1750FD0EDBCFE6FF6C
:1008B000FE0EDBCFE6FFFFDEE552E552E552E7CF65
:1008C000D9FF1200D9CFE6FFE1CFD9FF826ACF0E60
:1008D000CB6E3E0EBE6E1C0EBD6EBD50146E156A04
:1008E000000E1416900E1516040ED8901532143200
:1008F000E804FBE1BE50040DF35005011424016F20
:10090000000E1520026F400EE66EE5EC16F0E55283
:1009100001C5E6FF02C5E6FFF30E146E290E156E43
:10092000166A14C0E6FF15C0E6FF16C0E6FF0FEC1E
:1009300014F0176E050EE15E1750FD0EDBCFE6FFDB
:10094000FE0EDBCFE6FFB7DEE552E552E552E7CF1C
:10095000D9FF1200D9CFE6FFE1CFD9FF826A7C0E22
:10096000CB6E5C0EBE6E1C0EBD6EBD50146E156A55
:10097000000E1416900E1516040ED890153214326F
:10098000E804FBE1BE50040DF35005011424016F8F
:10099000000E1520026F400EE66EE5EC16F0E552F3
:1009A00001C5E6FF02C5E6FFE30E146E290E156EC3
:1009B000166A14C0E6FF15C0E6FF16C0E6FF0FEC8E
:1009C00014F0176E050EE15E1750FD0EDBCFE6FF4B
:1009D000FE0EDBCFE6FF6FDEE552E552E552E7CFD4
:1009E000D9FF1200D9CFE6FFE1CFD9FF826A7C0E92
:1009F000CB6E200EBE6E1C0EBD6EBD50146E156A01
:100A0000000E1416900E1516040ED89015321432DE
:100A1000E804FBE1BE50040DF35005011424016FFE
:100A2000000E1520026F400EE66EE5EC16F0E55262
:100A300001C5E6FF02C5E6FFD30E146E290E156E42
:100A4000166A14C0E6FF15C0E6FF16C0E6FF0FECFD
:100A500014F0176E050EE15E1750FD0EDBCFE6FFBA
:100A6000FE0EDBCFE6FF27DEE552E552E552E7CF8B
:100A7000D9FF1200D9CFE6FFE1CFD9FF050E086EEE
:100A8000096AFD0EDBCF0DF0FE0EDBCF0EF005EC9C
:100A90000FF006C008F507C009F50501010E085F53
:100AA000000E095B7C0ECB6E08C514F009C515F06D
:100AB000D89015321432D890153214321450BE6EBC
:100AC000030E08153D6F3E6B040E000A06E005019B
:100AD000D8903D373E37E804FBE10C0E05013D118F
:100AE0003D6F3DC5BDFF2BC5E6FF2CC5E6FFE3DD31
:100AF000E552E552E552E7CFD9FF1200D9CFE6FF24
:100B0000E1CFD9FF0001F869F969F4EC16F0E66A63
:100B1000E5EC16F0E5520AC5E6FF0BC5E6FFCC0E84
:100B2000146E290E156E166A14C0E6FF15C0E6FF96
:100B300016C0E6FF0FEC14F0176E050EE15E1750BD
:100B4000400EE66EE5EC16F0E552FD0EDBCFE6FF5B
:100B5000FE0EDBCFE6FFC40E146E290E156E166A6C
:100B600014C0E6FF15C0E6FF16C0E6FF0FEC14F058
:100B7000176E050EE15E17508A0ECB6EFD0EDBCFB1
:100B800008F0FE0EDBCF09F099EC0DF007C014F071
:100B900008C015F009C016F00AC017F00C6A0D6AFB
:100BA000B00E0E6E400E0F6E14C007F015C008F0A8
:100BB00016C009F017C00AF098EC0EF023EC0FF005
:100BC00008C008F509C009F508C514F009C515F0F5
:100BD000D89015321432D890153214321450BE6E9B
:100BE000030E050108153D6F3E6B040E000A06E07A
:100BF0000501D8903D373E37E804FBE10C0E0501B6
:100C00003D113D6F3DC5BDFF2BC5E6FF2CC5E6FF81
:100C100052DDE552E552E552E7CFD9FF12004FEC25
:100C200017F04AEC17F0000901E0FBD738EC17F099
:100C3000F3CF04F5F4CF05F51200939293949494B6
:100C40009282818080882F0EE66E37EC13F0E55299
:100C5000D09E010EF26EF28EF298F288F19CF28C28
:100C60009F800001F869F9691200DACFE4FFE2CF52
:100C7000DAFFE9CFE4FFEACFE4FFF6CFE4FFF7CFF6
:100C8000E4FFF5CFE4FFF3CFE4FFF4CFE4FFFACFC6
:100C9000E4FF00EE00F0140EE80403E3EECFE4FFFF
:100CA000FBD700EE14F0100EE80403E3EECFE4FFF0
:100CB000FBD7E6529EA008D09E90E66A800EE66EB4
:100CC00080EC16F0E552E5529EAA2DD061EC16F0AC
:100CD000E66E940E05013F25E96E000E4021EA6E96
:100CE000E552E750EF6E940E3F25E96E000E40216D
:100CF000EA6EEF5003E13F6B406B15D03F2B000EC7
:100D000040233FC5E9FF40C5EAFFE906EA5A940ED1
:100D1000E926000EEA22EF500A0805E12ED8F1DCA0
:100D200005013F6B406B80B804D00501032B010E19
:100D30000317E55200EE23F0100EE80403E3E5CFBD
:100D4000EDFFFBD700EE13F0140EE80403E3E5CF4C
:100D5000EDFFFBD7E5CFFAFFE5CFF4FFE5CFF3FFDB
:100D6000E5CFF5FFE5CFF7FFE5CFF6FFE5CFEAFFEB
:100D7000E5CFE9FFE5CFDAFF1100D9CFE6FFE1CFFC
:100D8000D9FF140EE1260501436B446B140E44AFEA
:100D900002D0D89003D0435D000E44590FE2D9CF62
:100DA00014F0DACF15F014504325E96E15504421A4
:100DB000EA6EEF6A432B000E4423E8D7436B446B83
:100DC0003FC514F040C515F0020E145E000E155A12
:100DD00044511518E8AE02D0153404D01450435DC8
:100DE000155044591DE2010EEA6A4325E96E44514B
:100DF000EA22940EE926000EEA22EF50E66ED9CFE1
:100E000014F0DACF15F014504325E96E1550442143
:100E1000EA6EE552E750EF6E432B000E4423D0D725
:100E20004B0E0001945D11E1D9CFE6FFDACFE6FF6A
:100E300087EC10F0E552E55206C02DF507C02EF5FF
:100E400008C02FF509C030F559D04C0E945D11E162
:100E5000D9CFE6FFDACFE6FF87EC10F0E552E55296
:100E600006C031F507C032F508C033F509C034F5C6
:100E700045D04D0E945D11E1D9CFE6FFDACFE6FF04
:100E800087EC10F0E552E55206C035F507C036F59F
:100E900008C037F509C038F531D0440E945D0DE136
:100EA000D9CFE6FFDACFE6FFF0EC11F0E552E552DC
:100EB000F3CF29F5F4CF2AF521D0530E945D11E13B
:100EC000D9CFE6FFDACFE6FF87EC10F0E552E55226
:100ED00006C014F507C015F508C016F509C017F5CA
:100EE0000DD0460E945D0AE1D9CFE6FFDACFE6FFDA
:100EF000F0EC11F0E552E552F3CF28F5140EE15C69
:100F000002E2E16AE552E16EE552E7CFD9FF120055
:100F1000C4EC0CF0FB0EDBCFF3FFDB06F350000953
:100F20000AE012EC0DF0FA0E7DEC0DF0F3E1151C69
:100F3000F1E1010E01D0000EF3EF0CF0C4EC0CF067
:100F40003B0EE12402E3E168E652E16E010EDB6A4A
:100F5000020EDB6AF90EDBCFF6FFFA0EDBCFF7FFEE
:100F6000FB0EDBCFF8FF0800F550DF6EDF5002E12B
:100F700017EF0CF0250EDF5C02E00AEF0CF0030E19
:100F8000DB6A040EDB6A050EDB6A060EDB6A070EFF
:100F9000DB6A2CEC0CF02D0EDF5C0CE02B0EDF5C22
:100FA00009E0200EDF5C06E0230EDF5C03E0300E7C
:100FB000DF5C1AE1DF50300A14E0130A0FE0030A85
:100FC0000AE00B0A05E0060AE4E1030EDB80E1D744
:100FD000030EDB82DED7030EDB84DBD7030EDB865A
:100FE000D8D7030EDB88D5D72A0EDF5C1BE128ECAF
:100FF0000CF076EC0CF010E0030EDB80086809685A
:10100000130EDBCF0DF0140EDBCF0EF05AEC10F008
:10101000040E06C0DBFF03D0130E5FEC0CF02CECCB
:101020000CF00BD0090EDB6ACDEC0CF003E041ECC8
:101030000DF0FAD7090E5FEC0CF0030EDBB0DB9875
:101040002E0EDF5C1BE12CEC0CF02A0EDF5C0BE1BA
:1010500028EC0CF076EC0CF003E1130EB1EC0CF084
:101060002CEC0CF00BD0090EDB6ACDEC0CF003E09D
:1010700041EC0DF0FAD7090EB1EC0CF0680EDF5C14
:1010800007E12CEC0CF0680EDF5C1DE1030E18D0BC
:10109000740EDF5C17E07A0EDF5C14E0480EDF5C54
:1010A00006E0540EDF5C03E05A0EDF5C02E1020E44
:1010B00007D06C0EDF5C03E06A0EDF5C04E1010E1A
:1010C00004EC0DF0C9DBDF506E0A01E17FD31E0A8C
:1010D00001E192D1200A01E18FD13F0A01E149D11A
:1010E0001A0A01E146D10D0A01E143D1200A01E1CA
:1010F00040D13A0A01E13DD1200A01E13AD1260A64
:1011000001E135D10D0A01E132D11A0A01E1D9D04C
:10111000200A4AE0300A1FE0460A0EE0250A01E0F4
:1011200083D3D950F90FE96EFF0EDA20EA6E010E73
:10113000EE5E000EEE5AEE5A12EC0DF0250EE66E43
:1011400095DB03E1151C01E169D30EEC0DF001E222
:101150006BD3DB2A69D3080EDB6A040EDB5001086F
:1011600006E2040EDB04D6EC0CF0DB508BDB080E41
:10117000DB5009E0030EDB50010B05E172DB01E0FF
:101180004DD3080EDB6A64DBEFCFDFFF86EC0DF09A
:1011900003E1151C01E142D30EEC0DF001E3DB2A63
:1011A00060DB01E141D33AD3070EDB5002080FE1C7
:1011B00052EC0DF0030E19EC0DF00E0EEECFDBFF2E
:1011C0000F0EEECFDBFF100EEECFDBFF20D0F70EC1
:1011D000DBCF17F0F80EDBCF18F0020E175E000E13
:1011E000185AF70E17C0DBFFF80E18C0DBFF17C048
:1011F000E9FF18C0EAFF09EC0DF0166A0E0E14C0E4
:10120000DBFF0F0E15C0DBFF100E16C0DBFF0E0E4E
:10121000DBCFE6FF0F0EDBCFE6FF100EDBCFE6FFE6
:10122000A1EC15F0E552E552E552130E07C0DBFFC5
:10123000140E08C0DBFF060EDB5005E0130E4DEC6C
:101240000DF001E26ADB71EC0DF002E2130E37DB08
:1012500034EC0DF006E0040E4DEC0DF002E2050E4C
:101260002EDB030EDBB005D0FCDA01E0D7D2080E8E
:10127000DB6A090EDB6A0E0EDBCFF6FF0F0EDBCF4B
:10128000F7FF100EDBCFF8FF0800F550DF6EDF50E0
:1012900014E077EC0DF011E286EC0DF003E1151C83
:1012A00001E1BCD2BBDB01E3DB2A090EDB2AD9500A
:1012B0000E0FE96E000ECBDBE7D7D3DA01E1B4D233
:1012C000ADD2C6DA110EEECFDBFF120EEDCFDBFF93
:1012D000110EDBCFE6FF120EDBCFE6FF93EC15F02D
:1012E000E552E552130EF3CFDBFF140EF4CFDBFF14
:1012F000060EDB5004E0130ED0DB01E20EDB71ECD6
:101300000DF002E2130EDBDAAFDB05E0040EC5DB05
:1013100002E2050ED4DA030EDBB005D0A2DA01E05A
:101320007DD2080EDB6A090EDB6A110EDBCFE9FF06
:10133000120EDBCFEAFFEFCFDFFFDF5014E0D7DB89
:1013400012E2E4DB03E1151C01E168D267DB01E393
:10135000DB2A090EDB2A110EDB2ADBCFE9FF120E96
:10136000E8E3DB2AE6D77DDA01E15ED257D2030E4D
:10137000DB8E070EDB0410E195DB040E5ADB0A0E50
:10138000EECFDBFF0B0EEECFDBFF0C0EEECFDBFF65
:101390000D0EEECFDBFF6CD0070EDB5003082CE107
:1013A000030EDBAE0DD0B2DA020E76DAEFCF14F018
:1013B000156A166A176A14AE39D01568166835D0E2
:1013C000F70EDBCF15F0F80EDBCF16F0020E155E30
:1013D000000E165AF70E15C0DBFFF80E16C0DBFF25
:1013E00015C0E9FF16C0EAFFEFCF14F00A0E14C0D3
:1013F000DBFF0B0EDB6A38D0070EDB50020809E179
:10140000030EDBAE04D059DB16AE10D00ED055DB88
:101410000DD0030EDBAE12D079DA020E3DDAF9DA26
:10142000166A176A15AE02D016681768E2DA0C0E53
:1014300016C0DBFF0D0E17C0DBFF1AD0F70EDBCF97
:1014400016F0F80EDBCF17F0020E165E000E175ADC
:10145000F70E16C0DBFFF80E17C0DBFF16C0E9FF62
:1014600017C0EAFFD6DAC5DA0C0EDB6A0D0EDB6AAE
:10147000060EDB5005E1010EF36E050EF3CFDBFF28
:10148000150EDB6A160EDB6AD950370F146E000E8C
:10149000DA20156E390E14C0DBFF3A0E15C0DBFFE3
:1014A000380EDB6A080EDB6A0A0EAEDADF50780A05
:1014B00012E0200A10E0280A0CE0200A0AE03F0AA5
:1014C00006E00D0A02E0200A08E1020E05D0080E2F
:1014D00003D0080EDF26100E97DA030EDBBE02D013
:1014E000DB92DB94DB50800B24E08ADAD890030E89
:1014F000EB50000A08E6000EEE5C000EEE58000EFF
:10150000EE58000EEE5815E213DA0B680C680D6801
:101510000E6824EC15F00A0E02C0DBFF0B0E03C0B0
:10152000DBFF0C0E04C0DBFF0D0E05C0DBFF2D0E34
:1015300008D0030EDBA202D02B0E03D0DBA408D010
:10154000200EF36E170EF3CFDBFF150EDB2A02D051
:10155000170EDB6A050EDB5003E1B7D901E189D034
:10156000820E146E2E0E156E000E166E070EDBCF59
:1015700017F0186A196A1A6A17C00BF018C00CF035
:1015800019C00DF01AC00EF0D3D91CEC16F014508F
:101590000224F36E15500320F46E16500420F86EEA
:1015A000F4CFF7FFF3CFF6FF0800090EF5CFDBFF0E
:1015B000580EDF5C0FE1610EF36E090E7BD90AE372
:1015C000200E146E090EDBCFE7FF1450E75E090E04
:1015D000E7CFDBFF070EDBCF14F0156A166A176A38
:1015E0000FDA14C00BF015C00CF016C00DF017C0C8
:1015F0000EF0EECF06F0EECF07F0EECF08F0EFCF13
:1016000009F01CEC16F009C0EDFF08C0EDFF07C0A3
:10161000EDFF06C0EFFF390EDBCFE9FFDB063A0E28
:10162000DBCFEAFF01E2DB06090EDBCFEFFF150E91
:10163000DB2A4BD995E1030EDBA61DD06F0EDF5CD4
:1016400006E1C1D918E3150EDB285BDA14D0780E59
:10165000DF5C09E0580EDF5C06E0620EDF5C03E051
:10166000420EDF5C08E1020EF36E160EF3CFDBFFD5
:1016700002D0150EDB6A030EDB50100B0EE0040ED9
:10168000DBCF14F0050EDB50D880145406E2060EB2
:10169000DB5003E1040EDB5034DA95D90AE2050E83
:1016A000DBCFE7FF150EDB50E75E050EE7CFDBFF74
:1016B00002D0050EDB6A040EDBCF14F0160E45D9FE
:1016C000D880145414E2160EDBCFE6FF150EDBCFE4
:1016D000E6FF040EDBCFE6FF050EDB50E552E75CCC
:1016E000E552D880E754E552D880E7545FD9030E1D
:1016F000DB50010B0BE1080EDB5008E0B2D801E033
:101700008DD0080EDB50BED8080EDB6A170EDB50FA
:1017100007E088D9170EF1D903E1151C01E17ED04D
:10172000160EDB5016E07ED9300EE66E9FD802E131
:10173000151C74E077D9DFCFE6FFA0EC14F0E5527A
:10174000E552E552F4CF15F00001F31C02E1151C3F
:1017500065E0050EDBCF14F0160EDB50D880145474
:1017600009E2050EDBCFE7FF160EDB50E75E050E44
:10177000E7CFDBFF300EE66E050ECBD94FE1390E19
:10178000DB2ADBCFE9FF3A0E01E3DB2ADBCFEAFFFE
:10179000090EEFCFDBFFDB500EE044D9090EADD9C7
:1017A00002E1151C3BE0390EDB2ADBCFE9FF3A0EE4
:1017B000EDE3DB2AEBD755D831E1160EDBCFE6FFA0
:1017C000080EC3D8E552E7245DD82ED0070EDB50B3
:1017D000030A1CE0010A14E0030A07E07BD9DBCF0F
:1017E000EEFF020EDBCFEDFF1FD0F5D8196A17AE62
:1017F00002D0186819682CD8BCD819C0EEFF14D0D4
:10180000EAD817BE186824D8B4D80ED063D9DBCF75
:10181000EFFF0AD07BD905E1151C03E1F368F468FA
:1018200010D0FCD801E3DB2A79D9B3EF07F0010E21
:10183000DBCF14F0020EDBCF15F014C0F3FF15C0A0
:10184000F4FF3B0EE15C02E2E16AE552E16ECBD0CF
:1018500029D9020E19EF0DF061D90800F550DF6E9D
:101860001200200EE66E080E89EF0DF0A0EC14F0C9
:10187000E552E552E552F3CF14F0F4CF15F0000134
:10188000F31C1200146E156AD950010F4DD9145073
:10189000EE261550ED221200185E000E195AF70EB2
:1018A00018C0DBFFF80E19C0DBFF18C0E9FF19C034
:1018B000EAFF1200DBCFF4FFF350F45C1200DB50C0
:1018C000E76E040EE7CFDBFF12000A0EDBCF14F049
:1018D0000B0EDBCF15F00C0EDBCF16F00D0EDBCFB1
:1018E00017F014501510161017101200130EEECF2B
:1018F000DBFF140EEDCFDBFF130EDBCF14F0140E65
:10190000DBCF15F00001800E15141200F70EDBCFAF
:1019100018F0F80EDBCF19F01200050EDB50E66E62
:10192000D950130F01D9E552E750EE6EED6A12005F
:101930000A0EDBCF06F00B0EDBCF07F00C0EDBCF71
:1019400008F00D0EDBCF09F01200DBCFE6FF150E1D
:10195000DBCFE6FF050EDB50E552E724E552E72436
:101960001200DB50CED8010EF36E060EF3CFDBFF74
:101970001200EE50EFCFEAFFE96E16C0EEFF17C07F
:10198000EEFF18C0EEFF1200D9CFE6FFDACFE6FF78
:10199000E1CFD9FFE2CFDAFF1200DFCFE6FFE66A40
:1019A000B3EC16F0E552E552F3501200E76E080E64
:1019B000E7CFDBFF1200EECF14F0EECF15F0EFCF44
:1019C00016F0176A1200050EDBCF14F0150EDB506F
:1019D000D88014541200010EDBCF16F0020EDBCFBC
:1019E00017F0186A1200E552E5CFDAFFE7CFD9FF0A
:1019F00012000A0E14C0DBFF0B0E15C0DBFF120035
:101A0000D9500A0F94EF0DF0F36E070EF3CFDBFF02
:101A10001200EECF14F0EFCF15F01200010EDB2A0A
:101A2000020E1200FC0EDBCFE6FFFD0EDBCFE6FF61
:101A30001200145E000E155AF70E14C0DBFFF80EEC
:101A400015C0DBFF14C0E9FF15C0EAFF1200DA2061
:101A5000EA6EEF2AEECFF6FF000EEF22EECFF7FF91
:101A6000EF22EECFF8FF1200040EDBCFE6FF130EDD
:101A7000DB50E552E75C9ADFDB5004DF060EDB50FB
:101A80001200090EDB500A0DF350DF24D00FE76E71
:101A9000090EE7CFDBFF2CEF0CF0DB50F36E050EE9
:101AA0005AEF0CF0F70EDBCF14F0F80EDBCF15F089
:101AB0001200DFCFE6FF36EF0CF028DF030EECDE7E
:101AC000DBEF0CF088EC07F0E552E552E552E55209
:101AD00000091200BDDEEE50EFCFEAFFE96E010E05
:101AE0001200130EDB50F36E040E5AEF0CF0040ECE
:101AF000DB50F36E090E5AEF0CF0DBCFE6FF36EF4A
:101B00000CF0E76E050EE7CFDBFF12008BDF59EF1D
:101B10000DF0DBCFE6FF86DF62EF0DF0D950F90F55
:101B2000E96EFF0E27EF0DF0E96E000EDA20EA6E87
:021B30001200A1
:0E1B3200019E08D0019E09AE05D0086C091E68
:101B4000E86A0922018E09C003F008C002F0136A96
:101B5000126A8E0E046E056AD5EF0FF00F7E016AD1
:101B600011EC10F029EC10F001B6B9EF0FF001A262
:101B70000AD001AA03D001BEB9EF0FF001A4C5EF4E
:101B80000FF0C2EF0FF001AA05D001ACC5EF0FF0C6
:101B9000C2EF0FF001A00AD001A808D001BE04D006
:101BA00001A402D0CEEF0FF0D2EF0FF0126A056A57
:101BB0000F500A5C116E10E307C013F008C002F06A
:101BC00009C003F00AC010F00CC007F00DC008F007
:101BD0000EC009F0013A09D00CC013F00DC002F09C
:101BE0000EC003F00FC010F0116C019E01BC018EFD
:101BF00010C004F001B001EF10F01A0E116001EFF7
:101C000010F0046A0A6A01A408D0076C081E091EB5
:101C10000A1EE86A082209220A2201AC08D0136CC5
:101C2000021E031E041EE86A022203220422066A20
:101C3000115207E00A340932083207320632112EF7
:101C4000F9D70750132608500222095003220A50E0
:101C5000042206C012F0019E04AE0BD0126C131EBB
:101C6000021E031E041EE86A13220222032204221B
:101C7000018E04A006D0D880033202321332123211
:101C8000102A10C004F0D5EF0FF0016A11EC10F02B
:101C900029EC10F001B6B9EF0FF001A205D001BA9E
:101CA000B9EF0FF0C0EF0FF001BACCEF0FF001A0C9
:101CB00005D001B8B9EF0FF0CCEF0FF001B8C0EFCD
:101CC0000FF0056A7F0E0A24046EE86A05220F50A1
:101CD000045EE86A055A1A0E106E0A6A126A136ADE
:101CE000026A036A0C50075E0D50085A0E50095ADA
:101CF000000E0A5A09E70C5007260D5008220E5014
:101D00000922000E0A2201D0128AD890073608361E
:101D100009360A36D8901236133602360336102E9C
:101D2000E1D7095008100710D8A4128AD5EF0FF098
:101D3000016A11EC10F029EC10F001B6B9EF0FF0C8
:101D400001A205D001B8B9EF0FF0C0EF0FF001AA62
:101D500005D001B0B9EF0FF0C0EF0FF001B002D025
:101D600001A802D0CCEF0FF0056A0F500A24046ED0
:101D7000E86A05227E0E045EE86A055A126A136A52
:101D8000026A036A0E500902F4CF03F0F3CF02F0A7
:101D90000D500902F3501326F4500222000E0322C4
:101DA0000E500802F3501326F4500222000E0322B4
:101DB0000C500902F3501226F4501322000E022296
:101DC00003220D500802F3501226F4501322000E85
:101DD000022203220E500702F3501226F45013225F
:101DE000000E022203220C500802F4501226000EAC
:101DF0001322022203220D500702F4501226000E75
:101E0000132202220322D5EF0FF008C012F008506F
:101E10000D02F4CF07F0F3CF06F009500E02F4CF15
:101E200009F0F3CF08F00D02F3500726F450082212
:101E3000E86A092212500E02F3500726F4500822D5
:101E4000E86A0922000C016A11EC10F001B62DEFCE
:101E50000FF001A20ED001B405D07F0E096EFF0E67
:101E6000086E1FD0800E096E086A1BD0096A086AC6
:101E700018D001B0FBD78F0E0A60EDD77E0E0A6432
:101E8000F5D78E0E0A5C05E0D890093208320A2A8E
:101E9000F8D701A406D0086C091EE86A092209AE29
:101EA000E5D7120064EC0FF001B6000C01B0000C95
:101EB00001B4000C010C64EC0FF001B6000C01B091
:101EC000000C01A4000C010C016A11EC10F029ECCB
:101ED00010F001B6120001AE08D001A004D001A894
:101EE00002D001801200019012000F500A5C0BE139
:101EF0000E50095C08E10D50085C05E10C50075CD0
:101F000002E101801200D8A002D0018E10D00A5048
:101F10000FC00AF00F6E09500EC009F00E6E085087
:101F20000DC008F00D6E07500CC007F00C6E0F507E
:101F30000A5C10E0FF0F09E0019001B403D001AE8C
:101F40000184120001AE019412000F2AD8900E32C3
:101F50000D320C320C50075E0D50085A0E50095AC3
:101F600009BEEAD7D8900736083609360A2EF8D7C0
:101F7000C8D77F0E0A6EFF0E096E086E076E12003C
:101F80007F0E01BEFF0E0A6E02D07F0E0A6E800E1B
:101F9000096E086A076AF3D701AE04D0800E0A6E94
:101FA000096AF7D70A6A096AF4D7035002101310B6
:101FB0001210F8E005BEF0D703BE0CD00450051097
:101FC000EBE0D89012361336023603360406D8A05A
:101FD0000506F2D70550D4E10428D2E012AE11D0A4
:101FE0007F0E121402E113A00CD0132AE86A022219
:101FF000032207E3D880033202321332042A042872
:10200000BFE00450C9E013C007F002C008F0033479
:10201000096E04300A6E09320A9E01BE0A8EBFEFB5
:102020000FF009360A3602E30184017E06E10180E1
:102030000A6A096A086A076A12000A2803E0D88057
:1020400009321200D890093202E1018212000186A1
:1020500012000E360F3602E3018C017E06E1018884
:102060000F6A0E6A0D6A0C6A12000F2803E0D8800E
:102070000E321200D8900E32EAE1018A1200019E5F
:102080000CD0019E09AE09D0066C071E081E091E61
:10209000E86A072208220922018E09C003F008C05D
:1020A00002F007C013F006C012F09E0E046E056A1F
:1020B000D5EF0FF009C013F008C012F008500D0260
:1020C000F4CF07F0F3CF06F009500E02F4CF09F079
:1020D000F3CF08F00D02F3500726F4500822E86A07
:1020E000092212500E02F3500726F4500822E86A23
:1020F00009220EAE80EF10F01250085E1350095AFC
:0E21000013AE000C0D50085E0E50095A000C74
:02210E00D9CF27
:10211000E6FFDACFE6FFE1CFD9FFE2CFDAFF100E1C
:10212000E12402E3E168E652E16E0F0EDB6AD9506A
:10213000020FE66E000EDA20E66ED950060FE66E4C
:10214000000EDA20E66EFC0EDBCFE6FFFD0EDBCFE5
:10215000E6FF65EC12F0146E060EE15C02E2E16A45
:10216000E552E16E1450F3CFDEFFF4CFDDFFDECF9A
:10217000E9FFDDCFEAFFEF50DF0B450814E1DF2A6E
:10218000010E01E3DB2ADECFE6FFDDCFE6FFF0EC58
:1021900011F0E552E552060EDBCFE7FFF350E726DC
:1021A000060EE7CFDBFF020EDBCF14F0030EDBCF12
:1021B00015F0040EDBCF16F0050E03D941EC10F03C
:1021C000F3D8060EDB5001E190D006D914340BE3AE
:1021D000010EF36E0F0EF3CFDBFF060EDB50FF0D8B
:1021E000060EF3CFDBFF0B0EDB6A0C0EDB6A800EF4
:1021F000F36E0D0EF3CFDBFF3F0EF36E0E0EF3CF3B
:10220000DBFFEAD8140EE76E1418E8AE02D0E7340C
:1022100002D0E750145C0BE397D8EC0E0C6E780EEE
:102220000D6EAD0E0E6E600E77D8140EB3D8D4D8E6
:102230000A0EE76E1418E8AE02D0E73402D0E75079
:10224000145C0BE381D8F90E0C6E020E0D6E150EA8
:102250000E6E500E61D80A0E9DD8BED8050EE76EE0
:102260001418E8AE02D0E73402D0E750145C0AE359
:102270006BD80C6A500E0D6EC30E0E6E470E4CD806
:10228000050E88D8A9D8020EE76E1418E8AE02D061
:10229000E73402D0E750145C09E356D80C6A0D6AA3
:1022A000C80E0E6E420E38D8020EEBD795D8010E2E
:1022B000E76E1418E8AE02D0E73402D0E750145CA1
:1022C00009E342D80C6A0D6A200E0E6E410E24D826
:1022D000060EDB060F0EDB5004E043D845EC0EF093
:1022E00003D03FD898EC0EF05FD8070EDBCF14F088
:1022F000080EDBCF15F0090EDBCF16F00A0E61D801
:10230000100EE15C02E2E16AE552E16EE552E5CFD2
:10231000DAFFE7CFD9FF12000F6E14C007F015C027
:1023200008F016C009F017C00AF098EC0EF00B0E7A
:1023300007C0DBFF0C0E08C0DBFF0D0E09C0DBFF82
:102340000E0E0AC0DBFF12000B0EDBCF14F00C0EDA
:10235000DBCF15F00D0EDBCF16F00E0EDBCF17F036
:102360001200070EDBCF07F0080EDBCF08F0090ED6
:10237000DBCF09F00A0EDBCF0AF00B0EDBCF0CF03F
:102380000C0EDBCF0DF00D0EDBCF0EF00E0EDBCF03
:102390000FF01200146E060EDBCFE7FF1450E75E5D
:1023A000060EE7CFDBFF1200070E07C0DBFF080EAB
:1023B00008C0DBFF090E09C0DBFF0A0E0AC0DBFF05
:1023C0001200DBCF17F014C006F015C007F016C0DE
:1023D00008F017C009F01200060EDBCF14F012004F
:1023E000FF0EE3CFEAFFE552FF0EE3CFE9FFE55230
:1023F000E66AE66AD9CFE6FFDACFE6FFFC0EE12413
:10240000D96EFF0EE220DA6EE66AE66AE66A200E10
:10241000EF5C06E0090EEF5C03E0EF6603D03FD00F
:10242000EE50F5D72D0EEF5C03E1FF0EE32A03D04B
:102430002B0EEF5C01E1EE502F0EEF6424D03A0E2C
:10244000EF6021D0D890F90EE336FA0EE336FD0E98
:10245000DECFE3FFFE0EDDCFE3FFD890F90EE336CB
:10246000FA0EE336D890F90EE336FA0EE336FD0E97
:10247000E350DE26FE0EE350DD22300EEE5CDE265B
:10248000000EDD22D9D7FF0EE3CFE8FFE85207E0C8
:10249000F90EE31EE32AFA0ED8B4E306E31EE55272
:1024A000E552E552FF0EE3CFDAFFE552FF0EE3CF30
:1024B000D9FFE552E1CFE9FFE2CFEAFFED52ED525D
:1024C000EECFF3FFEFCFF4FF1200D9CFE6FFDACF64
:1024D000E6FFE66AE66AE66AE66AE66AE66AE66AE7
:1024E000E66AE66AE66AF20EE3CFE9FFF30EE3CFAF
:1024F000EAFF200EEF5C06E0090EEF5C03E0EF66FA
:1025000003D07BD0EE50F5D72D0EEF5C03E1FF0E2C
:10251000E38003D02B0EEF5C01E1EE50FA0EE124D4
:10252000D96EFF0EE220DA6E2E0EEF5C04E1FF0E94
:10253000E382EE52F9D72F0EEF6449D03A0EEF60E6
:1025400046D0D890FA0EE336FB0EE336FC0EE336A7
:10255000FD0EE336F60EDECFE3FFF70EDECFE3FF30
:10256000F80EDECFE3FFF90EDDCFE3FFDD52DD52E3
:10257000D890FA0EE336FB0EE336FC0EE336FD0E82
:10258000E336D890FA0EE336FB0EE336FC0EE33664
:10259000FD0EE336F60EE350DE26F70EE350DE22A4
:1025A000F80EE350DE22F90EE350DD22DD52DD525B
:1025B000300EEE5CDE26000EDE22DE22DD22DD5253
:1025C000DD52FF0EE3A2B0D7FE0EE306ADD7FF0E3D
:1025D000E3A013D0FA0EE31EFB0EE31EFC0EE31E77
:1025E000FD0EE31EFA0EE32A08E1FB0EE32A05E1E5
:1025F000FC0EE32A02E1FD0EE32AF20EE9CFE3FF2F
:10260000F30EEACFE3FFEE0EE3CFD9FFEF0EE3CFF9
:10261000DAFFFA0EE3CFDEFFFB0EE3CFDEFFFC0EA8
:10262000E3CFDEFFFD0EE3CFDDFFDD52DD52F00E26
:10263000E3CFD9FFF10EE3CFDAFFFE0EE3CFDFFFEA
:10264000F20EE124E96EFF0EE220EA6EF60EE126BC
:10265000FF0EE222FF0EE3CFDAFFE552FF0EE3CFDB
:0E266000D9FFE552EECFF3FFEFCFF4FF1200EB
:02266E00D9CFC2
:10267000E6FFE1CFD9FF836A956A838E1E0EE66E70
:10268000C5EC16F0E552839A83980F0EE66EC5EC02
:1026900016F0E552830E836E838C839C050EE66EE6
:1026A000C5EC16F0E552838C839C0A0EE66E2DEC89
:1026B00017F0E552838C839C050EE66EC5EC16F090
:1026C000E552820E836E838C839C040EE66E2DECA5
:1026D00017F0E552280EE66E1AD8E552080EE66E9F
:1026E00016D8E5520F0EE66E12D8E552060EE66ECB
:1026F0000ED8E552010EE66E0AD8E5520F0EE66ED0
:10270000C5EC16F0E552E552E7CFD9FF1200D9CF5C
:10271000E6FFE1CFD9FFFE0EDB380F0B146EF00E93
:1027200083141410836E838C839CFE0EDB500F0B7E
:10273000146EF00E83141410836E838C839C0C0E25
:10274000E66E2DEC17F0E552E552E7CFD9FF120007
:10275000D9CFE6FFE1CFD9FFFE0EDBCFE6FFC6EC17
:1027600015F0E552FE0EDBCF14F0156A14BE1568A5
:1027700014C0F3FF15C0F4FFE552E7CFD9FF1200F4
:102780000E0EF66E000EF76E000EF86E05010900D3
:10279000F5504E6F0900F5504F6F03E14E6701D0C1
:1027A0003DD00900F550496F0900F5504A6F090006
:1027B000F5504B6F09000900F550E96E0900F5501E
:1027C000EA6E090009000900F5504C6F0900F55048
:1027D0004D6F09000900F6CF50F5F7CF51F5F8CF4E
:1027E00052F549C5F6FF4AC5F7FF4BC5F8FF05018D
:1027F0004C5302E14D5307E00900F550EE6E4C07D3
:10280000F8E24D07F9D750C5F6FF51C5F7FF52C59D
:0E281000F8FF05014E07000E4F5BBFD7120008
:02281E00D9CF10
:10282000E6FFDACFE6FFE1CFD9FFE2CFDAFFE652EB
:10283000E652E652E652D950FB0F146EFF0EDA2034
:10284000156E14C0DEFFDD6EDECFE6FFDDCFE6FFE6
:10285000FB0EDBCFE6FFFC0EDBCFE6FFFD0EDBCF92
:10286000E6FFF8C0E6FFF9C0E6FF9EEC07F0146E45
:10287000070EE15C02E2E16AE552E16E1450020EDD
:10288000F3CFDBFF030EF4CFDBFF020EDBCF14F040
:10289000030EDBCF15F014C0F3FF15C0F4FF040ED8
:1028A000E15C02E2E16AE552E16EE552E5CFDAFF72
:0628B000E7CFD9FF120082
:0A28B600D9CFE6FFDACFE6FFE1CF4D
:1028C000D9FFE2CFDAFFAC6AAB6AFD0EDBB0AC88B1
:1028D000DBA202D0AC8CAB8CDBB4AC8EDBA602D01E
:1028E000AB8801D0AB8ADBB8AC849E98DBBAAB86F0
:1028F000DBAC02D09D8A01D09D9A9E9ADBAE02D0BD
:102900009D8801D09D98FB0EDB50AF6EFB0EFC0E38
:10291000DBCF15F015C014F0156A1450B06EAC8AF8
:10292000AB8E949C948EAC50100B04E0AC50800B9A
:1029300001E1948CE552E5CFDAFFE7CFD9FF120031
:10294000D9CFE6FFDACFE6FFE1CFD9FFE2CFDAFF5A
:10295000FB0EDBCF14F0FC0EDBCF15F00001800E78
:1029600015141AE1FB0EDBCFE9FFFC0EDBCFEAFF0B
:10297000EECFF3FFEDCFF4FFEE2A000EEF22F3CF00
:10298000E9FFF4CFEAFFFD0EDBCFEFFFEF50156A52
:10299000F36E15C0F4FF10D0FB0EDB50FE0806E10D
:1029A000FD0EDBCFE6FF11EC17F005D0FD0EDBCFFF
:1029B000E6FFA8EC13F0E552E552E5CFDAFFE7CFEA
:0429C000D9FF120029
:0C29C40050574D20256420002564202081
:1029D0006D6D002050574D20323620256420206236
:1029E000696E002050574D20373420256420206226
:1029F000696E002050574D3220353020256420204C
:102A000062696E0050574D203530202564202062C9
:102A1000696E0025642020636D00703D2564206987
:102A20003D256420643D25640053503D25642064A9
:102A3000743D256420256600502563005125630000
:072A400020494E49542E000D
:082A480006500B02F3CF02F06F
:102A5000F4CF03F00C02F3500326000EF420046EB2
:102A600006500D02F3500426000EF420056E0650A9
:102A70000E02F350052607500B02F3500326F450C4
:102A80000422000E052207500C02F3500426F450D5
:102A9000052207500D02F350052608500B02F35093
:102AA0000426F450052208500C02F3500526095064
:082AB0000B02F3500526120091
:082AB800D9CFE6FFDACFE6FFFB
:102AC000E1CFD9FFE2CFDAFFC26AC06AFC0EDB4079
:102AD0007F0B3C0BC26EFC0EDB38F00B300B146E20
:102AE000FB0EDB500F0B1410C16EFD0EDB50040DFE
:102AF000F350380B156EFD0EDB380F0B070B146E01
:102B0000FD0EDB50800B14101510C06EFC0EDBAEFA
:102B100003D09E9C9D8CF28CC280E552E5CFDAFFFB
:062B2000E7CFD9FF12000F
:0A2B2600FE0EE3CFE9FFFF0EE3CF40
:102B3000EAFFF36AF46AEE5203E0F34AF42AFBD7A1
:102B40001200FF0EE3CFF8FFE552FF0EE3CFF7FFD1
:102B5000E552FF0EE3CFF6FFE552E66AE66AE66A63
:102B60000900F55209E0FD0EE32A05E1FE0EE32A15
:102B700002E1FF0EE32AF4D7FD0EE3CF07F0FE0ECD
:0C2B8000E3CF08F0FF0EE3CF09F01200D5
:042B8C00D9CFE6FFB8
:102B9000E1CFD9FFF00E95168316FE0EDB380F0B32
:102BA0000F0B83128388839A9CEC16F0838C9CEC29
:102BB00016F0839CF00E8316FE0EDB500F0B831273
:102BC0009CEC16F0838C9CEC16F0839C0F0E9512F7
:102BD0001E0EE66E2DEC17F0E552E552E7CFD9FF59
:022BE0001200E1
:0E2BE200D9CFE6FFE1CFD9FFF00E951683168E
:102BF000FE0EDB380F0B0F0B8312839A83989CEC2D
:102C000016F0838C9CEC16F0839CF00E8316FE0E5F
:102C1000DB500F0B83129CEC16F0838C9CEC16F0AF
:102C2000839C0F0E95121E0EE66E2DEC17F0E552EA
:082C3000E552E7CFD9FF1200C5
:082C3800056A046A036A026ADE
:102C4000200EE76ED890063607360836093602366B
:102C50000336043605360B50025C0C5003580D50F9
:102C600004580E50055809E30B50025E0C50035AED
:102C70000D50045A0E50055A062AE72EE4D71200CA
:102C8000D9CFE6FFDACFE6FFE1CFD9FFE2CFDAFF17
:102C9000FD0EDB507E0BCD6EFD0EDBAC02D0CD8E7B
:102CA00001D0CD9ECF6ACE6A9E90DBAE02D09D80D1
:102CB00001D09D90CD80E552E5CFDAFFE7CFD9FF77
:022CC000120000
:0E2CC200D9CFE6FFDACFE6FFE1CFD9FFE2CFB0
:102CD000DAFFE652F20E0001FA17ABAC03D0FA911C
:102CE000ABB0FA81ABB4FA85ABB2FA87AE50DF6E07
:102CF000DF50E552E552E5CFDAFFE7CFD9FF12000A
:102D0000D9CFE6FFDACFE6FFE1CFD9FFE2CFDAFF96
:102D1000E652E652FC0EDBCFDEFFDBCFDDFF010E1D
:102D2000DB50CF6EDF50CE6EE552E552E552E5CF77
:082D3000DAFFE7CFD9FF120022
:082D3800020EE66E2DEC17F00F
:102D4000E55212000F0EE66EC5EC16F0E5521200C9
:102D5000040EE66EC5EC16F0E552010EE66E1FECB1
:062D600017F0E55212001D
:0A2D6600F36AF46AFF0EE124E96E3F
:102D7000FF0EE220EA6EED6607D02F0EEF6404D05E
:0A2D80003A0EEF6001D0F32A1200B2
:062D8A00FF0EE350246E71
:102D9000480E01D04C0EE76EE72EFED7E76AE72E0D
:0A2DA000FED7242EF7D70000120022
:062DAA00000EF36E00EEC6
:102DB00000F0060E01D81200EA6002D0EE6AFCD7DD
:0A2DC000F350E9601200EE6AFCD740
:062DCA00D9CFE6FFE1CFC6
:102DD000D9FFFE0EDB50800FE66EF1EC15F0E552E8
:082DE000E552E7CFD9FF120014
:082DE800010EE66EF1EC15F09E
:102DF000E552320EE66E2DEC17F0E552E66AE5EC90
:062E000016F0E55212007D
:0A2E060014EE00F024EE00F0F86A6C
:102E1000019CC0EC13F003EC00F014EC00F0FBD7C5
:022E200012009E
:0E2E2200FF0EE350ACBA04D0AF6AAB8EAC8AA0
:0E2E3000949CACA2FED7AD6EF36EF46A120055
:022E3E00FF0E85
:102E4000E350246E1B0E00D001D0200EE76EE72E5B
:0A2E5000FED7242EFAD700D012009E
:062E5A00FF0EE350E84EFC
:102E60001200000000D000D000D0E82EFAD71200E7
:102E7000C450176E166AC3501610F36E17C0F4FFD5
:022E800012003E
:0E2E82003031323334353637383961626364AB
:032E900065660074
:0A2E9400C250020B01E0010E120013
:022E9E00C282EE
:022EA00012001E
:022EA200FEFF31
:0C2EA40000000000000000000000000022
:102EB000000000000000000000005C430000000073
:102EC000000000000000000000000000021E0000E2
:102ED00000000040400000003FCDCC8C3F000000CF
:0D2EE00000000000000000010000000000E4
:00000001FF
